{
  "_format": "hh-sol-artifact-1",
  "contractName": "LaunchCampaign",
  "sourceName": "contracts/LaunchCampaign.sol",
  "abi": [
    {
      "inputs": [
        {
          "components": [
            {
              "internalType": "string",
              "name": "name",
              "type": "string"
            },
            {
              "internalType": "string",
              "name": "symbol",
              "type": "string"
            },
            {
              "internalType": "string",
              "name": "logoURI",
              "type": "string"
            },
            {
              "internalType": "string",
              "name": "xAccount",
              "type": "string"
            },
            {
              "internalType": "string",
              "name": "website",
              "type": "string"
            },
            {
              "internalType": "string",
              "name": "extraLink",
              "type": "string"
            },
            {
              "internalType": "uint256",
              "name": "totalSupply",
              "type": "uint256"
            },
            {
              "internalType": "uint256",
              "name": "curveBps",
              "type": "uint256"
            },
            {
              "internalType": "uint256",
              "name": "liquidityTokenBps",
              "type": "uint256"
            },
            {
              "internalType": "uint256",
              "name": "basePrice",
              "type": "uint256"
            },
            {
              "internalType": "uint256",
              "name": "priceSlope",
              "type": "uint256"
            },
            {
              "internalType": "uint256",
              "name": "graduationTarget",
              "type": "uint256"
            },
            {
              "internalType": "uint256",
              "name": "liquidityBps",
              "type": "uint256"
            },
            {
              "internalType": "uint256",
              "name": "protocolFeeBps",
              "type": "uint256"
            },
            {
              "internalType": "address",
              "name": "router",
              "type": "address"
            },
            {
              "internalType": "address",
              "name": "lpReceiver",
              "type": "address"
            },
            {
              "internalType": "address",
              "name": "feeRecipient",
              "type": "address"
            },
            {
              "internalType": "address",
              "name": "creator",
              "type": "address"
            },
            {
              "internalType": "address",
              "name": "factory",
              "type": "address"
            }
          ],
          "internalType": "struct LaunchCampaign.InitParams",
          "name": "params",
          "type": "tuple"
        }
      ],
      "stateMutability": "nonpayable",
      "type": "constructor"
    },
    {
      "inputs": [
        {
          "internalType": "address",
          "name": "owner",
          "type": "address"
        }
      ],
      "name": "OwnableInvalidOwner",
      "type": "error"
    },
    {
      "inputs": [
        {
          "internalType": "address",
          "name": "account",
          "type": "address"
        }
      ],
      "name": "OwnableUnauthorizedAccount",
      "type": "error"
    },
    {
      "inputs": [],
      "name": "ReentrancyGuardReentrantCall",
      "type": "error"
    },
    {
      "inputs": [
        {
          "internalType": "address",
          "name": "token",
          "type": "address"
        }
      ],
      "name": "SafeERC20FailedOperation",
      "type": "error"
    },
    {
      "anonymous": false,
      "inputs": [
        {
          "indexed": true,
          "internalType": "address",
          "name": "caller",
          "type": "address"
        },
        {
          "indexed": false,
          "internalType": "uint256",
          "name": "liquidityTokens",
          "type": "uint256"
        },
        {
          "indexed": false,
          "internalType": "uint256",
          "name": "liquidityBnb",
          "type": "uint256"
        },
        {
          "indexed": false,
          "internalType": "uint256",
          "name": "protocolFee",
          "type": "uint256"
        },
        {
          "indexed": false,
          "internalType": "uint256",
          "name": "creatorPayout",
          "type": "uint256"
        }
      ],
      "name": "CampaignFinalized",
      "type": "event"
    },
    {
      "anonymous": false,
      "inputs": [
        {
          "indexed": true,
          "internalType": "address",
          "name": "previousOwner",
          "type": "address"
        },
        {
          "indexed": true,
          "internalType": "address",
          "name": "newOwner",
          "type": "address"
        }
      ],
      "name": "OwnershipTransferred",
      "type": "event"
    },
    {
      "anonymous": false,
      "inputs": [
        {
          "indexed": true,
          "internalType": "address",
          "name": "buyer",
          "type": "address"
        },
        {
          "indexed": false,
          "internalType": "uint256",
          "name": "amountOut",
          "type": "uint256"
        },
        {
          "indexed": false,
          "internalType": "uint256",
          "name": "cost",
          "type": "uint256"
        }
      ],
      "name": "TokensPurchased",
      "type": "event"
    },
    {
      "anonymous": false,
      "inputs": [
        {
          "indexed": true,
          "internalType": "address",
          "name": "seller",
          "type": "address"
        },
        {
          "indexed": false,
          "internalType": "uint256",
          "name": "amountIn",
          "type": "uint256"
        },
        {
          "indexed": false,
          "internalType": "uint256",
          "name": "payout",
          "type": "uint256"
        }
      ],
      "name": "TokensSold",
      "type": "event"
    },
    {
      "inputs": [],
      "name": "basePrice",
      "outputs": [
        {
          "internalType": "uint256",
          "name": "",
          "type": "uint256"
        }
      ],
      "stateMutability": "view",
      "type": "function"
    },
    {
      "inputs": [
        {
          "internalType": "uint256",
          "name": "amountOut",
          "type": "uint256"
        },
        {
          "internalType": "uint256",
          "name": "maxCost",
          "type": "uint256"
        }
      ],
      "name": "buyExactTokens",
      "outputs": [
        {
          "internalType": "uint256",
          "name": "cost",
          "type": "uint256"
        }
      ],
      "stateMutability": "payable",
      "type": "function"
    },
    {
      "inputs": [
        {
          "internalType": "address",
          "name": "recipient",
          "type": "address"
        },
        {
          "internalType": "uint256",
          "name": "amountOut",
          "type": "uint256"
        },
        {
          "internalType": "uint256",
          "name": "maxCost",
          "type": "uint256"
        }
      ],
      "name": "buyExactTokensFor",
      "outputs": [
        {
          "internalType": "uint256",
          "name": "total",
          "type": "uint256"
        }
      ],
      "stateMutability": "payable",
      "type": "function"
    },
    {
      "inputs": [],
      "name": "buyersCount",
      "outputs": [
        {
          "internalType": "uint256",
          "name": "",
          "type": "uint256"
        }
      ],
      "stateMutability": "view",
      "type": "function"
    },
    {
      "inputs": [],
      "name": "creatorReserve",
      "outputs": [
        {
          "internalType": "uint256",
          "name": "",
          "type": "uint256"
        }
      ],
      "stateMutability": "view",
      "type": "function"
    },
    {
      "inputs": [],
      "name": "currentPrice",
      "outputs": [
        {
          "internalType": "uint256",
          "name": "",
          "type": "uint256"
        }
      ],
      "stateMutability": "view",
      "type": "function"
    },
    {
      "inputs": [],
      "name": "curveSupply",
      "outputs": [
        {
          "internalType": "uint256",
          "name": "",
          "type": "uint256"
        }
      ],
      "stateMutability": "view",
      "type": "function"
    },
    {
      "inputs": [],
      "name": "extraLink",
      "outputs": [
        {
          "internalType": "string",
          "name": "",
          "type": "string"
        }
      ],
      "stateMutability": "view",
      "type": "function"
    },
    {
      "inputs": [],
      "name": "factory",
      "outputs": [
        {
          "internalType": "address",
          "name": "",
          "type": "address"
        }
      ],
      "stateMutability": "view",
      "type": "function"
    },
    {
      "inputs": [],
      "name": "feeRecipient",
      "outputs": [
        {
          "internalType": "address",
          "name": "",
          "type": "address"
        }
      ],
      "stateMutability": "view",
      "type": "function"
    },
    {
      "inputs": [
        {
          "internalType": "uint256",
          "name": "minTokens",
          "type": "uint256"
        },
        {
          "internalType": "uint256",
          "name": "minBnb",
          "type": "uint256"
        }
      ],
      "name": "finalize",
      "outputs": [
        {
          "internalType": "uint256",
          "name": "usedTokens",
          "type": "uint256"
        },
        {
          "internalType": "uint256",
          "name": "usedBnb",
          "type": "uint256"
        }
      ],
      "stateMutability": "nonpayable",
      "type": "function"
    },
    {
      "inputs": [],
      "name": "finalizedAt",
      "outputs": [
        {
          "internalType": "uint256",
          "name": "",
          "type": "uint256"
        }
      ],
      "stateMutability": "view",
      "type": "function"
    },
    {
      "inputs": [],
      "name": "graduationTarget",
      "outputs": [
        {
          "internalType": "uint256",
          "name": "",
          "type": "uint256"
        }
      ],
      "stateMutability": "view",
      "type": "function"
    },
    {
      "inputs": [
        {
          "internalType": "address",
          "name": "",
          "type": "address"
        }
      ],
      "name": "hasBought",
      "outputs": [
        {
          "internalType": "bool",
          "name": "",
          "type": "bool"
        }
      ],
      "stateMutability": "view",
      "type": "function"
    },
    {
      "inputs": [],
      "name": "launched",
      "outputs": [
        {
          "internalType": "bool",
          "name": "",
          "type": "bool"
        }
      ],
      "stateMutability": "view",
      "type": "function"
    },
    {
      "inputs": [],
      "name": "liquidityBps",
      "outputs": [
        {
          "internalType": "uint256",
          "name": "",
          "type": "uint256"
        }
      ],
      "stateMutability": "view",
      "type": "function"
    },
    {
      "inputs": [],
      "name": "liquiditySupply",
      "outputs": [
        {
          "internalType": "uint256",
          "name": "",
          "type": "uint256"
        }
      ],
      "stateMutability": "view",
      "type": "function"
    },
    {
      "inputs": [],
      "name": "logoURI",
      "outputs": [
        {
          "internalType": "string",
          "name": "",
          "type": "string"
        }
      ],
      "stateMutability": "view",
      "type": "function"
    },
    {
      "inputs": [],
      "name": "lpReceiver",
      "outputs": [
        {
          "internalType": "address",
          "name": "",
          "type": "address"
        }
      ],
      "stateMutability": "view",
      "type": "function"
    },
    {
      "inputs": [],
      "name": "owner",
      "outputs": [
        {
          "internalType": "address",
          "name": "",
          "type": "address"
        }
      ],
      "stateMutability": "view",
      "type": "function"
    },
    {
      "inputs": [],
      "name": "priceSlope",
      "outputs": [
        {
          "internalType": "uint256",
          "name": "",
          "type": "uint256"
        }
      ],
      "stateMutability": "view",
      "type": "function"
    },
    {
      "inputs": [],
      "name": "protocolFeeBps",
      "outputs": [
        {
          "internalType": "uint256",
          "name": "",
          "type": "uint256"
        }
      ],
      "stateMutability": "view",
      "type": "function"
    },
    {
      "inputs": [
        {
          "internalType": "uint256",
          "name": "amountOut",
          "type": "uint256"
        }
      ],
      "name": "quoteBuyExactTokens",
      "outputs": [
        {
          "internalType": "uint256",
          "name": "",
          "type": "uint256"
        }
      ],
      "stateMutability": "view",
      "type": "function"
    },
    {
      "inputs": [
        {
          "internalType": "uint256",
          "name": "amountIn",
          "type": "uint256"
        }
      ],
      "name": "quoteSellExactTokens",
      "outputs": [
        {
          "internalType": "uint256",
          "name": "",
          "type": "uint256"
        }
      ],
      "stateMutability": "view",
      "type": "function"
    },
    {
      "inputs": [],
      "name": "renounceOwnership",
      "outputs": [],
      "stateMutability": "nonpayable",
      "type": "function"
    },
    {
      "inputs": [],
      "name": "router",
      "outputs": [
        {
          "internalType": "contract IPancakeRouter02",
          "name": "",
          "type": "address"
        }
      ],
      "stateMutability": "view",
      "type": "function"
    },
    {
      "inputs": [
        {
          "internalType": "uint256",
          "name": "amountIn",
          "type": "uint256"
        },
        {
          "internalType": "uint256",
          "name": "minPayout",
          "type": "uint256"
        }
      ],
      "name": "sellExactTokens",
      "outputs": [
        {
          "internalType": "uint256",
          "name": "payout",
          "type": "uint256"
        }
      ],
      "stateMutability": "nonpayable",
      "type": "function"
    },
    {
      "inputs": [],
      "name": "sold",
      "outputs": [
        {
          "internalType": "uint256",
          "name": "",
          "type": "uint256"
        }
      ],
      "stateMutability": "view",
      "type": "function"
    },
    {
      "inputs": [],
      "name": "token",
      "outputs": [
        {
          "internalType": "contract LaunchToken",
          "name": "",
          "type": "address"
        }
      ],
      "stateMutability": "view",
      "type": "function"
    },
    {
      "inputs": [],
      "name": "totalBuyVolumeWei",
      "outputs": [
        {
          "internalType": "uint256",
          "name": "",
          "type": "uint256"
        }
      ],
      "stateMutability": "view",
      "type": "function"
    },
    {
      "inputs": [],
      "name": "totalSellVolumeWei",
      "outputs": [
        {
          "internalType": "uint256",
          "name": "",
          "type": "uint256"
        }
      ],
      "stateMutability": "view",
      "type": "function"
    },
    {
      "inputs": [],
      "name": "totalSupply",
      "outputs": [
        {
          "internalType": "uint256",
          "name": "",
          "type": "uint256"
        }
      ],
      "stateMutability": "view",
      "type": "function"
    },
    {
      "inputs": [
        {
          "internalType": "address",
          "name": "newOwner",
          "type": "address"
        }
      ],
      "name": "transferOwnership",
      "outputs": [],
      "stateMutability": "nonpayable",
      "type": "function"
    },
    {
      "inputs": [],
      "name": "website",
      "outputs": [
        {
          "internalType": "string",
          "name": "",
          "type": "string"
        }
      ],
      "stateMutability": "view",
      "type": "function"
    },
    {
      "inputs": [],
      "name": "xAccount",
      "outputs": [
        {
          "internalType": "string",
          "name": "",
          "type": "string"
        }
      ],
      "stateMutability": "view",
      "type": "function"
    },
    {
      "stateMutability": "payable",
      "type": "receive"
    }
  ],
  "bytecode": "0x6102608060405234620008c95762003f36803803809162000021828562000f7e565b8339810190602081830312620008c95780516001600160401b038111620008c9576102609283828401820312620008c9576040519384016001600160401b03811185821017620008a757604052828201516001600160401b038111620008c9578162000091918486010162000fc7565b8452828201602001516001600160401b038111620008c95781620000b9918486010162000fc7565b6020850152828201604001516001600160401b038111620008c95781620000e4918486010162000fc7565b6040850152828201606001516001600160401b038111620008c957816200010f918486010162000fc7565b6060850152828201608001516001600160401b038111620008c957816200013a918486010162000fc7565b608085015282820160a00151916001600160401b038311620008c9576200016d610240926200022f948387010162000fc7565b60a086015283810160c0818101519087015260e08082015190870152610100808201519087015261012080820151908701526101408082015190870152610160808201519087015261018080820151908701526101a08082015190870152620001da906101c00162001022565b6101c0860152620001f16101e08286010162001022565b6101e0860152620002086102008286010162001022565b6102008601526200021f6102208286010162001022565b9384610220870152010162001022565b61024083015260016000556001600160a01b0381161562000f6557600180546001600160a01b039283166001600160a01b03198216811790925560405192167f8be0079c531659141344cd1fd0a4f28419497f9722a3daafe3b4186f6b6457e0600080a360c08201511562000f32575060e0810151801515908162000f25575b501562000ef45760e0810151610100820151810180911162000ede576127101062000ea6576101208101511562000e74576101408101511562000e42576101c08101516001600160a01b03161562000e0f576102208101516001600160a01b03161562000ddb576127106101808201511162000da6576127106101a08201511162000d72576040810151511562000d425760408101518051906001600160401b038211620008a75760025490600182811c9216801562000d37575b6020831014620009fb5781601f84931162000cd6575b50602090601f831160011462000c585760009262000c4c575b50508160011b916000199060031b1c1916176002555b60608101518051906001600160401b038211620008a75760035490600182811c9216801562000c41575b6020831014620009fb5781601f84931162000bcf575b50602090601f831160011462000b405760009262000b34575b50508160011b916000199060031b1c1916176003555b60808101518051906001600160401b038211620008a75760045490600182811c9216801562000b29575b6020831014620009fb5781601f84931162000ab7575b50602090601f831160011462000a285760009262000a1c575b50508160011b916000199060031b1c1916176004555b60a08101518051906001600160401b038211620008a75760055490600182811c9216801562000a11575b6020831014620009fb5781601f849311620009a5575b50602090601f831160011462000916576000926200090a575b50508160011b916000199060031b1c1916176005555b6101208101516101409081528101516101609081528101516101809081528101516101a09081528101516101c0526102408101516001600160a01b0390811660e0526102008201518116610100526101e082015116806200090457506102208101516001600160a01b03165b610120526101c08101516001600160a01b031660c0908152810180516101e0525160e0820151612710916200059e919062001037565b0461020052612710620005bc60c08301516101008401519062001037565b0461022052620005e4620005d960c083015161020051906200104b565b61022051906200104b565b610240526102205115620008ce578051602082015160c0830151604051926001600160401b03610f6a850190811190851117620008a7578392620006416200065892610f6a62002fac87396080610f6a8701818152019062001059565b90610f6a850182036020610f6a8701015262001059565b906040610f6a84010152306060610f6a8401015203906000f08015620008bd5760808190526001600160a01b031660a081905260c09190910151813b15620008c9576000916044839260405194859384926340c10f1960e01b845230600485015260248401525af18015620008bd576200088e575b604051611f2b90816200108182396080518181816101bc0152818161097301528181610a960152610c02015260a0518181816104ac01528181610a6a01528181610bad01528181610d2d01528181610dcb01528181610e5001528181610e8401528181610f80015281816114510152611707015260c05181818161020401528181610b6301528181610c9f01528181610cef01528181610e070152610f29015260e0518181816103b7015261070d01526101005181818161051101528181610fca01528181610ff6015281816114c4015281816115dc0152611787015261012051818181610c6001526118f50152610140518181816106d4015281816111e30152611e250152610160518181816111bd015281816115680152611e4f01526101805181818161105a015261117c01526101a05181818161069901526108b401526101c05181818161087a015281816118810152611bae01526101e0518161193c01526102005181818161083401528181610915015281816110e001526118bc0152610220518181816108dd01528181610b4201528181610c2a01528181610d6301528181610da4015261162301526102405181818161094301526115a30152f35b6001600160401b038111620008a75760405238620006cd565b634e487b7160e01b600052604160045260246000fd5b6040513d6000823e3d90fd5b600080fd5b60405162461bcd60e51b815260206004820152600e60248201526d6c6971756964697479207a65726f60901b6044820152606490fd5b62000568565b015190503880620004e6565b6005600090815293507f036b6384b5eca791c62761152d0c79bb0604c104a5fb6f4eb0703f3154bb3db091905b601f198416851062000989576001945083601f198116106200096f575b505050811b01600555620004fc565b015160001960f88460031b161c1916905538808062000960565b8181015183556020948501946001909301929091019062000943565b90915060056000526020600020601f840160051c810160208510620009f3575b90849392915b601f830160051c82018110620009e3575050620004cd565b60008155859450600101620009cb565b5080620009c5565b634e487b7160e01b600052602260045260246000fd5b91607f1691620004b7565b01519050388062000477565b6004600090815293507f8a35acfbc15ff81a39ae7d344fd709f28e8600b4aa8c65c6b64bfe7fe36bd19b91905b601f198416851062000a9b576001945083601f1981161062000a81575b505050811b016004556200048d565b015160001960f88460031b161c1916905538808062000a72565b8181015183556020948501946001909301929091019062000a55565b60046000529091507f8a35acfbc15ff81a39ae7d344fd709f28e8600b4aa8c65c6b64bfe7fe36bd19b601f840160051c81016020851062000b21575b90849392915b601f830160051c8201811062000b115750506200045e565b6000815585945060010162000af9565b508062000af3565b91607f169162000448565b01519050388062000408565b6003600090815293507fc2575a0e9e593c00f959f8c92f12db2869c3395a3b0502d05e2516446f71f85b91905b601f198416851062000bb3576001945083601f1981161062000b99575b505050811b016003556200041e565b015160001960f88460031b161c1916905538808062000b8a565b8181015183556020948501946001909301929091019062000b6d565b60036000529091507fc2575a0e9e593c00f959f8c92f12db2869c3395a3b0502d05e2516446f71f85b601f840160051c81016020851062000c39575b90849392915b601f830160051c8201811062000c29575050620003ef565b6000815585945060010162000c11565b508062000c0b565b91607f1691620003d9565b01519050388062000399565b60026000908152935060008051602062003f1683398151915291905b601f198416851062000cba576001945083601f1981161062000ca0575b505050811b01600255620003af565b015160001960f88460031b161c1916905538808062000c91565b8181015183556020948501946001909301929091019062000c74565b600260005290915060008051602062003f16833981519152601f840160051c81016020851062000d2f575b90849392915b601f830160051c8201811062000d1f57505062000380565b6000815585945060010162000d07565b508062000d01565b91607f16916200036a565b60405162461bcd60e51b81526020600482015260086024820152676c6f676f2075726960c01b6044820152606490fd5b60405162461bcd60e51b815260206004820152600c60248201526b70726f746f636f6c2062707360a01b6044820152606490fd5b60405162461bcd60e51b815260206004820152600d60248201526c6c69717569646974792062707360981b6044820152606490fd5b60405162461bcd60e51b815260206004820152600c60248201526b63726561746f72207a65726f60a01b6044820152606490fd5b60405162461bcd60e51b815260206004820152600b60248201526a726f75746572207a65726f60a81b6044820152606490fd5b60405162461bcd60e51b815260206004820152600a602482015269736c6f7065207a65726f60b01b6044820152606490fd5b60405162461bcd60e51b815260206004820152600a6024820152697072696365207a65726f60b01b6044820152606490fd5b60405162461bcd60e51b815260206004820152601060248201526f706f7274696f6e206f766572666c6f7760801b6044820152606490fd5b634e487b7160e01b600052601160045260246000fd5b60405162461bcd60e51b815260206004820152600960248201526863757276652062707360b81b6044820152606490fd5b61271091501038620002af565b62461bcd60e51b815260206004820152600e60248201526d696e76616c696420737570706c7960901b6044820152606490fd5b604051631e4fbdf760e01b815260006004820152602490fd5b601f909101601f19168101906001600160401b03821190821017620008a757604052565b60005b83811062000fb65750506000910152565b818101518382015260200162000fa5565b81601f82011215620008c95780516001600160401b038111620008a7576040519262000ffe601f8301601f19166020018562000f7e565b81845260208284010111620008c9576200101f916020808501910162000fa2565b90565b51906001600160a01b0382168203620008c957565b8181029291811591840414171562000ede57565b9190820391821162000ede57565b90602091620010748151809281855285808601910162000fa2565b601f01601f191601019056fe608080604052600436101561001d575b50361561001b57600080fd5b005b600090813560e01c90816302c7e7af1461195f5750806318160ddd146119245780631f0c57fc146118df5780632138a4c0146118a457806335659fb814611869578063365d57a41461184b578063366ad250146117c55780633794f6be14611646578063381562c21461160b57806346904840146115c6578063543546291461158b57806354e42f7e1461155057806360068dd81461151157806365161831146113b05780636bb38b28146112da578063715018a61461128f5780638091f3bf1461126c57806386f2ece01461124e57806389f2f085146112305780638da5cb5b146112075780639d1b464a1461119f578063a4b20f1314611164578063af769545146110b1578063b6013cef146107ff578063ba49a08c146107e1578063beb0a4161461073c578063c45a0155146106f7578063c7876ea4146106bc578063c9f62af214610681578063dd1a2a39146105dc578063ed33da2714610395578063f20f3d90146102ab578063f2fde38b14610233578063f887ea40146101ee5763fc0c546a0361000f57346101eb57806003193601126101eb576040517f00000000000000000000000000000000000000000000000000000000000000006001600160a01b03168152602090f35b80fd5b50346101eb57806003193601126101eb576040517f00000000000000000000000000000000000000000000000000000000000000006001600160a01b03168152602090f35b50346101eb5760203660031901126101eb5761024d611996565b610255611ce5565b6001600160a01b0390811690811561029257600180546001600160a01b03198116841790915516600080516020611edf833981519152600080a380f35b604051631e4fbdf760e01b815260048101849052602490fd5b50346101eb57806003193601126101eb5760405160009060035460018160011c906001831692831561038b575b6020938484108114610377578386529081156103575750600114610317575b61031384610307818803826119f0565b60405191829182611a13565b0390f35b919350600360005283600020916000925b82841061034457505050816103139361030792820101936102f7565b8054858501870152928501928101610328565b60ff1916858501525050151560051b8201019150610307816103136102f7565b634e487b7160e01b87526022600452602487fd5b91607f16916102d8565b5060603660031901126101eb576103aa611996565b6024356001600160a01b037f0000000000000000000000000000000000000000000000000000000000000000811633036105a8576103e6611bec565b8216908115610572576103fe60ff6007541615611ab9565b61042560065461041f6104196104148584611b30565b611e19565b91611e19565b90611a96565b9261042f84611bac565b9061046061043d8387611b30565b9561044c604435881115611af9565b61045887341015611b3d565b600954611b30565b600955838652600c60205260408620805460ff81161561053b575b5050604083600195936104d082600080516020611eff833981519152956104a760209c99600654611b30565b6006557f0000000000000000000000000000000000000000000000000000000000000000611ca9565b8061050b575b508634116104f3575b81519081528688820152a255604051908152f35b6105066105008834611a96565b33611c0f565b6104df565b610535907f0000000000000000000000000000000000000000000000000000000000000000611c0f565b386104d6565b60019060ff1916179055600b546001810180911161055e57600b5560408361047b565b634e487b7160e01b87526011600452602487fd5b60405162461bcd60e51b815260206004820152600e60248201526d1e995c9bc81c9958da5c1a595b9d60921b6044820152606490fd5b60405162461bcd60e51b815260206004820152600c60248201526b4f4e4c595f464143544f525960a01b6044820152606490fd5b50346101eb57806003193601126101eb5760405160009060055460018160011c9060018316928315610677575b60209384841081146103775783865290811561035757506001146106375761031384610307818803826119f0565b919350600560005283600020916000925b82841061066457505050816103139361030792820101936102f7565b8054858501870152928501928101610648565b91607f1691610609565b50346101eb57806003193601126101eb5760206040517f00000000000000000000000000000000000000000000000000000000000000008152f35b50346101eb57806003193601126101eb5760206040517f00000000000000000000000000000000000000000000000000000000000000008152f35b50346101eb57806003193601126101eb576040517f00000000000000000000000000000000000000000000000000000000000000006001600160a01b03168152602090f35b50346101eb57806003193601126101eb5760405160009060045460018160011c90600183169283156107d7575b60209384841081146103775783865290811561035757506001146107975761031384610307818803826119f0565b919350600460005283600020916000925b8284106107c457505050816103139361030792820101936102f7565b80548585018701529285019281016107a8565b91607f1691610769565b50346101eb57806003193601126101eb576020600b54604051908152f35b50346101eb5761080e3661197b565b90610817611ce5565b61081f611bec565b829183916007549160ff8316611080576006547f0000000000000000000000000000000000000000000000000000000000000000148015611056575b156110255760ff1990921660011760075542600855612710918261089f7f000000000000000000000000000000000000000000000000000000000000000047611b7e565b049283151580610ff3575b610fc4575b6108d97f000000000000000000000000000000000000000000000000000000000000000047611b7e565b04917f0000000000000000000000000000000000000000000000000000000000000000151580610fbb575b610b21575b505050836109396006547f0000000000000000000000000000000000000000000000000000000000000000611a96565b80610a94575b50507f000000000000000000000000000000000000000000000000000000000000000080610a57575b504780610a3b575b847f00000000000000000000000000000000000000000000000000000000000000006001600160a01b0316803b15610a375781906004604051809481936322a3148f60e21b83525af18015610a2c57610a14575b50936001916040958651918683528560208401528783015260608201527fd286a958d004cd376acc3762fff407f0dd9bf991995fc81a26ff88081f2b7d1b60803392a25582519182526020820152f35b610a1e86916119ac565b610a2857386109c4565b8480fd5b6040513d88823e3d90fd5b5080fd5b600154610a529082906001600160a01b0316611c0f565b610970565b600154610a8e91906001600160a01b03167f0000000000000000000000000000000000000000000000000000000000000000611ca9565b38610968565b7f00000000000000000000000000000000000000000000000000000000000000006001600160a01b031690813b15610b1d578291610ae991604051948580948193632770a7eb60e21b83523060048401611b91565b03925af18015610b1257610aff575b849061093f565b610b0b909491946119ac565b9238610af8565b6040513d87823e3d90fd5b8280fd5b60405163095ea7b360e01b60208201529295509293509190610ba281610b947f00000000000000000000000000000000000000000000000000000000000000007f00000000000000000000000000000000000000000000000000000000000000006001600160a01b031660248401611b91565b03601f1981018352826119f0565b6020868251828401827f00000000000000000000000000000000000000000000000000000000000000005af186513d82610f76575b505015610f17575b5061070842014211610f035760405163f305d71960e01b81526001600160a01b037f0000000000000000000000000000000000000000000000000000000000000000811660048301527f00000000000000000000000000000000000000000000000000000000000000006024830152604482019290925260648101929092527f000000000000000000000000000000000000000000000000000000000000000081166084830152610708420160a48301529092606091849160c4918391907f0000000000000000000000000000000000000000000000000000000000000000165af18015610ef85783928491610ebf575b50908260405160208681830163095ea7b360e01b815260018060a01b037f000000000000000000000000000000000000000000000000000000000000000016602485015281604485015260448452610d27846119d5565b835190827f00000000000000000000000000000000000000000000000000000000000000005af186513d82610e7a575b505015610df5575b50807f000000000000000000000000000000000000000000000000000000000000000011610d8f575b8080610909565b610def90610dc860018060a01b0360015416917f0000000000000000000000000000000000000000000000000000000000000000611a96565b907f0000000000000000000000000000000000000000000000000000000000000000611ca9565b38610d88565b60405163095ea7b360e01b60208201527f00000000000000000000000000000000000000000000000000000000000000006001600160a01b0316602482015260448082018890528152610e749190610e4e9081816119d5565b7f0000000000000000000000000000000000000000000000000000000000000000611e76565b38610d5f565b909150610eb757507f00000000000000000000000000000000000000000000000000000000000000006001600160a01b03163b15155b3880610d57565b600114610eb0565b9250506060823d606011610ef0575b81610edb606093836119f0565b81010312610b1d576020825192015138610cd0565b3d9150610ece565b6040513d85823e3d90fd5b634e487b7160e01b85526011600452602485fd5b60405163095ea7b360e01b60208201527f00000000000000000000000000000000000000000000000000000000000000006001600160a01b0316602482015260448082018890528152610f709190610e4e9081816119d5565b38610bdf565b909150610fb357507f00000000000000000000000000000000000000000000000000000000000000006001600160a01b03163b15155b3880610bd7565b600114610fac565b50821515610904565b610fee847f0000000000000000000000000000000000000000000000000000000000000000611c0f565b6108af565b507f00000000000000000000000000000000000000000000000000000000000000006001600160a01b031615156108aa565b60405162461bcd60e51b81526020600482015260096024820152681d1a1c995cda1bdb1960ba1b6044820152606490fd5b50477f0000000000000000000000000000000000000000000000000000000000000000111561085b565b60405162461bcd60e51b8152602060048201526009602482015268199a5b985b1a5e995960ba1b6044820152606490fd5b50346101eb5760203660031901126101eb576004356110d1811515611a5c565b6006546110de8282611b30565b7f0000000000000000000000000000000000000000000000000000000000000000106111345761111d8161041f61041961041460209661112c96611b30565b61112681611bac565b90611b30565b604051908152f35b60405162461bcd60e51b81526020600482015260086024820152671cdbdb19081bdd5d60c21b6044820152606490fd5b50346101eb57806003193601126101eb5760206040517f00000000000000000000000000000000000000000000000000000000000000008152f35b50346101eb57806003193601126101eb57602061112c6111e16006547f0000000000000000000000000000000000000000000000000000000000000000611d11565b7f0000000000000000000000000000000000000000000000000000000000000000611b30565b50346101eb57806003193601126101eb576001546040516001600160a01b039091168152602090f35b50346101eb57806003193601126101eb576020600a54604051908152f35b50346101eb57806003193601126101eb576020600954604051908152f35b50346101eb57806003193601126101eb57602060ff600754166040519015158152f35b50346101eb57806003193601126101eb576112a8611ce5565b600180546001600160a01b0319811690915581906001600160a01b0316600080516020611edf8339815191528280a380f35b50346101eb57806003193601126101eb57604051816002549060018260011c91600184169384156113a6575b6020948585108114611392578487529081156113705750600114611335575b61031385610307818903826119f0565b929450600283528483205b82841061135d575050508161031393610307928201019338611325565b8054858501870152928501928101611340565b60ff191686860152505050151560051b82010191506103078161031338611325565b634e487b7160e01b83526022600452602483fd5b92607f1692611306565b506113ba3661197b565b906113c3611bec565b6113d260ff6007541615611ab9565b6113e860065461041f6104196104148584611b30565b6114176113f482611bac565b9161140b6114028483611b30565b95861115611af9565b61045885341015611b3d565b600955338452600c60205260408420805460ff8116156114ee575b50509281602094611447600194600654611b30565b60065561147582337f0000000000000000000000000000000000000000000000000000000000000000611ca9565b806114be575b508334116114ac575b6040519081528385820152600080516020611eff83398151915260403392a255604051908152f35b6114b96105008534611a96565b611484565b6114e8907f0000000000000000000000000000000000000000000000000000000000000000611c0f565b3861147b565b60019060ff1916179055600b5460018101809111610f0357600b55816020611432565b50346101eb5760203660031901126101eb5760209060ff906040906001600160a01b0361153c611996565b168152600c84522054166040519015158152f35b50346101eb57806003193601126101eb5760206040517f00000000000000000000000000000000000000000000000000000000000000008152f35b50346101eb57806003193601126101eb5760206040517f00000000000000000000000000000000000000000000000000000000000000008152f35b50346101eb57806003193601126101eb576040517f00000000000000000000000000000000000000000000000000000000000000006001600160a01b03168152602090f35b50346101eb57806003193601126101eb5760206040517f00000000000000000000000000000000000000000000000000000000000000008152f35b50346101eb576116553661197b565b9061165e611bec565b61166d60ff6007541615611ab9565b60065461168961167c82611e19565b61041f6104148585611a96565b906116b38361169784611bac565b926116ae6116a58587611a96565b97881015611af9565b611a96565b6006556040516323b872dd60e01b60208201523360248201523060448201526064808201859052815260a081016001600160401b038111828210176117b157926001949261172b61174493602099966040527f0000000000000000000000000000000000000000000000000000000000000000611e76565b80611781575b5061173c8633611c0f565b600a54611b30565b600a5560405190815283858201527f2dcf9433d75db0d8b1c172641f85e319ffe4ad22e108a95d1847ceb906e5195d60403392a255604051908152f35b6117ab907f0000000000000000000000000000000000000000000000000000000000000000611c0f565b38611731565b634e487b7160e01b87526041600452602487fd5b50346101eb5760203660031901126101eb576004356117e5811515611a5c565b6006548082116118175761180e8161041f61041460209561180861112c96611e19565b93611a96565b61041f81611bac565b60405162461bcd60e51b815260206004820152600c60248201526b195e18d959591cc81cdbdb1960a21b6044820152606490fd5b50346101eb57806003193601126101eb576020600854604051908152f35b50346101eb57806003193601126101eb5760206040517f00000000000000000000000000000000000000000000000000000000000000008152f35b50346101eb57806003193601126101eb5760206040517f00000000000000000000000000000000000000000000000000000000000000008152f35b50346101eb57806003193601126101eb576040517f00000000000000000000000000000000000000000000000000000000000000006001600160a01b03168152602090f35b50346101eb57806003193601126101eb5760206040517f00000000000000000000000000000000000000000000000000000000000000008152f35b905034610a375781600319360112610a37576020906006548152f35b6040906003190112611991576004359060243590565b600080fd5b600435906001600160a01b038216820361199157565b6001600160401b0381116119bf57604052565b634e487b7160e01b600052604160045260246000fd5b608081019081106001600160401b038211176119bf57604052565b601f909101601f19168101906001600160401b038211908210176119bf57604052565b6020808252825181830181905290939260005b828110611a4857505060409293506000838284010152601f8019910116010190565b818101860151848201604001528501611a26565b15611a6357565b60405162461bcd60e51b815260206004820152600b60248201526a1e995c9bc8185b5bdd5b9d60aa1b6044820152606490fd5b91908203918211611aa357565b634e487b7160e01b600052601160045260246000fd5b15611ac057565b60405162461bcd60e51b815260206004820152601160248201527018d85b5c185a59db881b185d5b98da1959607a1b6044820152606490fd5b15611b0057565b60405162461bcd60e51b8152602060048201526008602482015267736c69707061676560c01b6044820152606490fd5b91908201809211611aa357565b15611b4457565b60405162461bcd60e51b8152602060048201526012602482015271696e73756666696369656e742076616c756560701b6044820152606490fd5b81810292918115918404141715611aa357565b6001600160a01b039091168152602081019190915260400190565b7f0000000000000000000000000000000000000000000000000000000000000000908115611be55761271091611be191611b7e565b0490565b5050600090565b600260005414611bfd576002600055565b604051633ee5aeb560e01b8152600490fd5b60008080809481945af1903d15611ca3573d906001600160401b038211611c8f5760405191611c48601f8201601f1916602001846119f0565b825260203d92013e5b15611c5857565b60405162461bcd60e51b815260206004820152600f60248201526e1d1c985b9cd9995c8819985a5b1959608a1b6044820152606490fd5b634e487b7160e01b81526041600452602490fd5b50611c51565b611cde611ce39392611cd060405194859263a9059cbb60e01b602085015260248401611b91565b03601f1981018452836119f0565b611e76565b565b6001546001600160a01b03163303611cf957565b60405163118cdaa760e01b8152336004820152602490fd5b9060001981830981830291828083109203918083039214611d8757670de0b6b3a76400009082821115611d74577faccb18165bd6fe31ae1cf318dc5b51eee0e1ba569b88cd74c1773b91fac10669940990828211900360ee1b910360121c170290565b634e487b7160005260116020526024601cfd5b5050670de0b6b3a764000091500490565b9060001981830981830291828083109203918083039214611e01576a0c097ce7bc90715b34b9f160251b9082821115611d74577f356317ffa45f828d2a41175b2aed3a20e7fdd4a4e46cc11944d93b01be7b1711940990828211900360db1b910360251c170290565b50506a0c097ce7bc90715b34b9f160251b9004919050565b611e7390611126611e4a7f000000000000000000000000000000000000000000000000000000000000000083611d11565b9180027f0000000000000000000000000000000000000000000000000000000000000000611d98565b90565b906000602091828151910182855af115611ed2576000513d611ec957506001600160a01b0381163b155b611ea75750565b604051635274afe760e01b81526001600160a01b039091166004820152602490fd5b60011415611ea0565b6040513d6000823e3d90fdfe8be0079c531659141344cd1fd0a4f28419497f9722a3daafe3b4186f6b6457e08fafebcaf9d154343dad25669bfa277f4fbacd7ac6b0c4fed522580e040a0f33a164736f6c6343000818000a60a060405234620003de5762000f6a803803806200001d81620003e3565b9283398101608082820312620003de5781516001600160401b039190828111620003de57816200004f91850162000409565b6020918285015190848211620003de576200006c91860162000409565b90606060408601519501519060018060a01b0394858316809303620003de578151818111620002de576003908154906001948583811c93168015620003d3575b89841014620003bd578190601f9384811162000367575b5089908483116001146200030057600092620002f4575b505060001982851b1c191690851b1782555b8551928311620002de5760049586548581811c91168015620002d3575b89821014620002be5782811162000273575b50879184116001146200020857938394918492600095620001fc575b50501b92600019911b1c19161782555b8015620001e457600580546001600160a01b03198116831790915560405194167f8be0079c531659141344cd1fd0a4f28419497f9722a3daafe3b4186f6b6457e0600080a38315620001b75783608052604051610aee90816200047c823960805181818161052001526105f30152f35b62461bcd60e51b8352820152600b60248201526a636170206973207a65726f60a81b604482015260649150fd5b604051631e4fbdf760e01b8152600081840152602490fd5b01519350388062000137565b9190601f198416928760005284896000209460005b8b898383106200025b575050501062000240575b50505050811b01825562000147565b01519060f884600019921b161c191690553880808062000231565b8686015189559097019694850194889350016200021d565b87600052886000208380870160051c8201928b8810620002b4575b0160051c019086905b828110620002a75750506200011b565b6000815501869062000297565b925081926200028e565b602288634e487b7160e01b6000525260246000fd5b90607f169062000109565b634e487b7160e01b600052604160045260246000fd5b015190503880620000da565b90879350601f19831691866000528b6000209260005b8d82821062000350575050841162000337575b505050811b018255620000ec565b015160001983871b60f8161c1916905538808062000329565b8385015186558b9790950194938401930162000316565b90915084600052896000208480850160051c8201928c8610620003b3575b918991869594930160051c01915b828110620003a3575050620000c3565b6000815585945089910162000393565b9250819262000385565b634e487b7160e01b600052602260045260246000fd5b92607f1692620000ac565b600080fd5b6040519190601f01601f191682016001600160401b03811183821017620002de57604052565b919080601f84011215620003de5782516001600160401b038111620002de576020906200043f601f8201601f19168301620003e3565b92818452828287010111620003de5760005b8181106200046757508260009394955001015290565b85810183015184820184015282016200045156fe6080604081815260048036101561001557600080fd5b600092833560e01c90816306fdde03146107df57508063095ea7b31461073657806318160ddd1461071757806323b872dd14610632578063313ce56714610616578063355274ea146105db57806340c10f19146104d95780634ada218b146104b257806370a082311461047b578063715018a6146104305780638a8c523c146103fe5780638da5cb5b146103d557806395d89b41146102d15780639dc29fac146101d6578063a9059cbb146101a5578063dd62ed3e146101585763f2fde38b146100de57600080fd5b34610154576020366003190112610154576100f7610901565b90610100610a75565b6001600160a01b0391821692831561013e575050600580546001600160a01b03198116841790915516600080516020610aa28339815191528380a380f35b51631e4fbdf760e01b8152908101849052602490fd5b8280fd5b5050346101a157806003193601126101a15780602092610176610901565b61017e61091c565b6001600160a01b0391821683526001865283832091168252845220549051908152f35b5080fd5b5050346101a157806003193601126101a1576020906101cf6101c5610901565b6024359033610973565b5160018152f35b508290346101a157826003193601126101a1576101f1610901565b90602435906101fe610a75565b6001600160a01b03838116939084156102ba5760055460ff8160a01c1615610288575b5050838552846020528585205491838310610269575050818495600080516020610ac2833981519152936020938688528785520381872055816002540360025551908152a380f35b6102848484895194859463391434e360e21b86528501610955565b0390fd5b168085141590816102af575b506102a0578680610221565b5084516312f1f92360e01b8152fd5b905033141587610294565b8651634b637e8f60e11b8152808401879052602490fd5b509190346101a157816003193601126101a15780519082845460018160011c90600183169283156103cb575b60209384841081146103b85783885290811561039c5750600114610364575b505050829003601f01601f19168201926001600160401b03841183851017610351575082918261034d9252826108b8565b0390f35b634e487b7160e01b815260418552602490fd5b919250868652828620918387935b838510610388575050505083010138808061031c565b805488860183015293019284908201610372565b60ff1916878501525050151560051b840101905038808061031c565b634e487b7160e01b895260228a52602489fd5b91607f16916102fd565b5050346101a157816003193601126101a15760055490516001600160a01b039091168152602090f35b833461042d578060031936011261042d57610417610a75565b6005805460ff60a01b1916600160a01b17905580f35b80fd5b833461042d578060031936011261042d57610449610a75565b600580546001600160a01b0319811690915581906001600160a01b0316600080516020610aa28339815191528280a380f35b5050346101a15760203660031901126101a15760209181906001600160a01b036104a3610901565b16815280845220549051908152f35b5050346101a157816003193601126101a15760209060ff60055460a01c1690519015158152f35b5090346101545780600319360112610154576104f3610901565b9060243591610500610a75565b6001600160a01b03169283156105af576002549061051e8483610932565b7f00000000000000000000000000000000000000000000000000000000000000001061057d575082600080516020610ac2833981519152926105638795602094610932565b60025585855284835280852082815401905551908152a380f35b606490602084519162461bcd60e51b8352820152600c60248201526b18d85c08195e18d95959195960a21b6044820152fd5b6020606492519162461bcd60e51b83528201526007602482015266746f207a65726f60c81b6044820152fd5b5050346101a157816003193601126101a157602090517f00000000000000000000000000000000000000000000000000000000000000008152f35b5050346101a157816003193601126101a1576020905160128152f35b50823461042d57606036600319011261042d5761064d610901565b61065561091c565b916044359360018060a01b038316808352600160205286832033845260205286832054916000198310610691575b6020886101cf898989610973565b8683106106f95781156106e25733156106cb575082526001602090815286832033845281529186902090859003905582906101cf87610683565b8751634a1406b160e11b8152908101849052602490fd5b875163e602df0560e01b8152908101849052602490fd5b9050610284868851938493637dc7a0d960e11b855233908501610955565b5050346101a157816003193601126101a1576020906002549051908152f35b503461015457816003193601126101545761074f610901565b6024359033156107c8576001600160a01b03169182156107b157508083602095338152600187528181208582528752205582519081527f8c5be1e5ebec7d5bd14f71427d1e84f3dd0314c0f7b2291e5b200ac8c7c3b925843392a35160018152f35b8351634a1406b160e11b8152908101859052602490fd5b835163e602df0560e01b8152808401869052602490fd5b84915083346101545782600319360112610154578260035460018160011c90600183169283156108ae575b60209384841081146103b857838852908115610892575060011461085957505050829003601f01601f19168201926001600160401b03841183851017610351575082918261034d9252826108b8565b91925060038652828620918387935b83851061087e575050505083010185808061031c565b805488860183015293019284908201610868565b60ff1916878501525050151560051b840101905085808061031c565b91607f169161080a565b6020808252825181830181905290939260005b8281106108ed57505060409293506000838284010152601f8019910116010190565b8181018601518482016040015285016108cb565b600435906001600160a01b038216820361091757565b600080fd5b602435906001600160a01b038216820361091757565b9190820180921161093f57565b634e487b7160e01b600052601160045260246000fd5b604091949392606082019560018060a01b0316825260208201520152565b6001600160a01b0392838216929091908315610a5c578416938415610a435760055460ff8160a01c1615610a0e575b5050600090838252816020526040822054908382106109f157509160408282600080516020610ac2833981519152958760209652828652038282205586815220818154019055604051908152a3565b6102848460405193849363391434e360e21b855260048501610955565b16808414159081610a38575b50610a265738806109a2565b6040516312f1f92360e01b8152600490fd5b905033141538610a1a565b60405163ec442f0560e01b815260006004820152602490fd5b604051634b637e8f60e11b815260006004820152602490fd5b6005546001600160a01b03163303610a8957565b60405163118cdaa760e01b8152336004820152602490fdfe8be0079c531659141344cd1fd0a4f28419497f9722a3daafe3b4186f6b6457e0ddf252ad1be2c89b69c2b068fc378daa952ba7f163c4a11628f55a4df523b3efa164736f6c6343000818000a405787fa12a823e0f2b7631cc41b3ba8828b3321ca811111fa75cd3aa3bb5ace",
  "linkReferences": {},
  "deployedLinkReferences": {}
}